S00E0000752D626F6F742E73726563C0
S315402000002A82AE849301000097520C0083B2820F5D
S315402000107390521073104010C15237038040337191
S3154020002053000A85EF1091482A842A81EF00506DAB
S3154020003097520C0083B2823605432FA96208631E6D
S315402000400900EF10714723B0911623BC41149752F3
S315402000500C0083B2A2CB2FA0020A97520C0083B287
S31540200060E2CA05432FA3620CE31E03FEA281054389
S315402000703313430083B38116B3E3630023B471166D
S315402000802FA0020A631B0910EF108026EF1060266E
S3154020009013050000175F0C00033F4F14029F2A8967
S315402000A0AE89328A4A8197520C0083B222F5B30F29
S315402000B05A406386420B5283175E0C00033E8E03E2
S315402000C0330E5E40B383C20103BF0200A102233038
S315402000D0E3012103E3CA72FE17530C00033303B92D
S315402000E097530C0083B30325630B73067E93FE93CD
S315402000F0A9A8033F03FF0D4E631BCF01033E83FE9A
S31540200100033F83FF7E9F7E9E2330EE013DA8975E70
S315402001100C0083BEAE22FE9E033F03FF93520F0286
S31540200120137FFF0F094E6312CF03033E83FE614FB9
S31540200130B382E203B38A5E00833283FF03BF8A0021
S31540200140169F7E9F7E9E2330EE016103E3D363FAA2
S3154020015097520C0083B202FBFE9273905210975234
S315402001600C0083B222F9FE9217530C00033383D43A
S315402001707E936387620023B00200A102E3CD62FE34
S31540200180EF10C012EF10E01297520C0083B282D5C6
S31540200190B38EF2014E85D285828E73005010F5BF04
S315402001A082807D557E150D0582807D557E150D05F7
S315402001B082807D557E150D0582807D557E150D05E7
S315402001C082807D557E150D0582807D557E150D05D7
S315402001D082807D557E150D0582809717000083B756
S315402001E0E7C6B1CB89C5986119E7058921E17D55D7
S315402001F07E1509058280171800000338A8C4971871
S31540200200000083B8A8C301466316C8007D557E15F5
S31540200210390582808867636DA700946FB206AA96D7
S315402002206378D7009C6B3E97098F98E10145828081
S315402002300506C697D1BF7D557E150D058280411195
S3154020024022E006E450452A8423280500AA85014554
S31540200250EF00006508C8A2600264410182808147A0
S315402002606313F60082803387F50083460700330701
S31540200270F50085072300D700E5B717550C00033551
S31540200280E5AF97570C0083B7E7DD3CF597570C0051
S3154020029083B7C7BE1CED97570C0083B7A7C51CF183
S315402002A079BF1D71A6E4CAE04EFCB704E0BF1759DA
S315402002B00C000339A9AC97590C0083B929FAA2E856
S315402002C052F856F45AF05EEC62E866E486ECAE8C60
S315402002D0175C0C00033C0CA3175A0C00033A8ACD3A
S315402002E0975A0C0083BA8A0533049500130B89016B
S315402002F0938B890063604C034664E660A664066976
S31540200300E279427AA27A027BE26B426CA26C256148
S315402003106F00D07983B7810703350C00A6973E95A9
S31540200320638C0C00636665019307090863FCA70686
S31540200330638AAB066388A90683378C00094713F680
S31540200340F70F6300E6048D476314F60483360C01E9
S31540200350A296638B0C0403B70C0163E8E60083B7CF
S315402003608C01B207BA9763F1D7042A86978507008E
S31540200370938545DF170500001305C556EF206728EE
S3154020038015A081936147B387E702D6979467C9B78B
S3154020039097850700938505DD17050000130505524F
S315402003A0EF202726610CB9B79305750414E193F520
S315402003B005FC137505FCEF00D03FEDB7411122E057
S315402003C08147328406E4EF00A01D09C41C4093F700
S315402003D0F7071CC0A26002644101828005AA2A88D0
S315402003E00147BD48B307E8003385E50083C70701C9
S315402003F003450500630417030507E385A7FE01456A
S31540200400130708028355070011C5835706008D8FB1
S3154020041013B51700090799C50906EDB7898F13B596
S315402004201700F9BF99C6836708009D073E97619BD1
S3154020043098E209C59717000023BE07A18280411183
S3154020044097150000938585A1014506E4EFF0FFD876
S31540200450A2609717000023BF079E410182805D71ED
S31540200460A2E026FC86E44AF84EF452F056EC971465
S3154020047000009384A49E9C6003D70500328403E940
S3154020048007013E9911EB19C6E1071CE263E42701F7
S3154020049023300400814405A8971A0000938A8A9B3A
S315402004A02A8A03B50A00AE890DC9B2862E86D28520
S315402004B0EFF0FFF21DC111C41C6063E42701233015
S315402004C0040083B40A00A66006644279A279027ABF
S315402004D0E26A2685E274616182808460E10463F584
S315402004E02403930A8100D6864E86D2852685EFF050
S315402004F01FEFA26763E3270102E409C569D4A26717
S315402005001CE0D1B7A264E5F041F469B711ED7D5501
S315402005107E15090582807D557E150905A2700274D7
S31540200520E264426945618280797122F006F426ECC4
S315402005304AE82E84EDD1328979DE0C61AA8422855F
S31540200540EF0000279C60E308F5FC3000A2854A8531
S31540200550EFF0FFF001E583570400D5FFA2658DC972
S3154020056093850502AE8703D7070089076DFF9860FC
S315402005703386B74090E06361C7022285EFF03FCED5
S31540200580A2654A854146C105EFF07FCD014579B741
S315402005907D557E15390559B77D557E151505BDBF47
S315402005A02A8819ED7D557E15090582807D557E1553
S315402005B00905A2700274E2644269A269456182809B
S315402005C02E85EDD1797122F006F426EC4AE84EE4E8
S315402005D03684E9DEB289C2850146BA843E89EFF087
S315402005E01FE81DCD638509005C4123A0F900630502
S315402005F009001C652330F900036705001C6018E0DC
S315402006000366050063E2C702D5D09305050283D76A
S3154020061005008905EDFF2685EFF07FC4014551BFD2
S315402006207D557E15390571B77D557E15150551B712
S315402006303DC5411122E006E417140000130404824C
S315402006401C60171700000337E780944B1396060269
S3154020065001923E966366A70017070000233C077E5B
S315402006609305050203D7050089056DFF036705003D
S315402006701D07BA95E1993307B540359F0D8E98CB26
S31540200680EFF0FFBD006001451048930584012136F7
S31540200690EF00002148C8A260026441018280828026
S315402006A01D71A6E4CAE056F45AF05EEC62E886EC88
S315402006B0A2E84EFC52F866E4170C0000130C0C7AA4
S315402006C003330C003E89AA8B03640301B6843A8B1C
S315402006D0C28A1A9481479396070213D7F6015E97EA
S315402006E0035707009B8917009B8709006DF793974F
S315402006F0090293D9F701930C040233036940338AE4
S315402007003C0126935293916763EB6706BB8724018E
S315402007101CC02334140150C0130504014146EFF098
S315402007201FB44E86DE856685EFF07FB32686DA8552
S315402007305285EFF0DFB233059A004A86D685EFF030
S315402007401FB20366040083340C0001451D065296F1
S31540200750619A059E90C8938584012136EF00401406
S31540200760C8C80145E6604664A6640669E279427ACD
S31540200770A27A027BE26B426CA26C256182807D5517
S315402007807E152505C5B79707000083B7276D9C4B77
S3154020079011651D9D02150191011582807D557E159D
S315402007A00D0582807D557E150D058280D5BBB9BB52
S315402007B02A8701456308B50093171500BA9783D752
S315402007C0070091E382800505F5B793F735008DCB79
S315402007D005CA170700001307E71383C705007D36B0
S315402007E08505A98F93F7F70F8A07BA979C431B5520
S315402007F08500A98F1B85070001C693F73500F1FFB9
S31540200800F115137836009B572600AE881B562600D6
S3154020081017030000130303100DEE630B0802821723
S31540200820F9838D07BE95170700001307A70E83C7C8
S3154020083015007D388505A98F93F7F70F8A07BA9754
S315402008409C431B558500A98F1B850700E31108FE95
S31540200850828083A6480091087D36A98E13F7F60F2D
S315402008600A071A9718439BD68600358F9376F70F3B
S315402008708A069A9694421B578700B98E13F7F60F2D
S315402008800A071A9718439BD68600358F9376F70F1B
S315402008908A069A9688421B578700398D0125ADBF17
S315402008A041111345F5FF06E4EFF03FF2A260012522
S315402008B01345F5FF4101828025733A20556E6B6EB4
S315402008C06F776E2072656C6F636174696F6E20748A
S315402008D079706520256C6C780A00000000000000C5
S315402008E025733A2052656C6F636174696F6E20611F
S315402008F074202570206973206F7574206F6620726E
S31540200900616E67652028256C78290A000000000062
S3154020091000000000963007772C610EEEBA510999F7
S3154020092019C46D078FF46A7035A563E9A395649E53
S315402009303288DB0EA4B8DC791EE9D5E088D9D29777
S315402009402B4CB609BD7CB17E072DB8E7911DBF90D3
S315402009506410B71DF220B06A4871B9F3DE41BE84F7
S315402009607DD4DA1AEBE4DD6D51B5D4F4C785D38353
S3154020097056986C13C0A86B647AF962FDECC9658AF7
S315402009804F5C0114D96C0663633D0FFAF50D088D53
S31540200990C8206E3B5E10694CE44160D5727167A2F7
S315402009A0D1E4033C47D4044BFD850DD26BB50AA553
S315402009B0FAA8B5356C98B242D6C9BBDB40F9BCAC77
S315402009C0E36CD832755CDF45CF0DD6DC593DD1ABD3
S315402009D0AC30D9263A00DE518051D7C81661D0BFF7
S315402009E0B5F4B42123C4B3569995BACF0FA5BDB853
S315402009F09EB802280888055FB2D90CC624E90BB1F7
S31540200A00877C6F2F114C6858AB1D61C13D2D66B652
S31540200A109041DC760671DB01BC20D2982A10D5EFB6
S31540200A208985B1711FB5B606A5E4BF9F33D4B8E812
S31540200A30A2C9077834F9000F8EA8099618980EE1B6
S31540200A40BB0D6A7F2D3D6D08976C6491015C63E612
S31540200A50F4516B6B62616C1CD83065854E0062F236
S31540200A60ED95066C7BA5011BC1F4088257C40FF592
S31540200A70C6D9B06550E9B712EAB8BE8B7C88B9FCB6
S31540200A80DF1DDD62492DDA15F37CD38C654CD4FB12
S31540200A905861B24DCE51B53A7400BCA3E230BBD4B6
S31540200AA041A5DF4AD795D83D6DC4D1A4FBF4D6D312
S31540200AB06AE96943FCD96E34468867ADD0B860DAB6
S31540200AC0732D0444E51D03335F4C0AAAC97C0DDD12
S31540200AD03C710550AA41022710100BBE86200CC936
S31540200AE025B56857B3856F2009D466B99FE461CE92
S31540200AF00EF9DE5E98C9D9292298D0B0B4A8D7C7B6
S31540200B00173DB359810DB42E3B5CBDB7AD6CBAC011
S31540200B102083B8EDB6B3BF9A0CE2B6039AD2B1742D
S31540200B203947D5EAAF77D29D1526DB048316DC7389
S31540200B30120B63E3843B64943E6A6D0DA85A6A7A2D
S31540200B400BCF0EE49DFF099327AE000AB19E077D89
S31540200B5044930FF0D2A3088768F2011EFEC20669AD
S31540200B605D5762F7CB67658071366C19E7066B6E09
S31540200B70761BD4FEE02BD3895A7ADA10CC4ADD672D
S31540200B806FDFB9F9F9EFBE8E43BEB717D58EB06089
S31540200B90E8A3D6D67E93D1A1C4C2D83852F2DF4F2D
S31540200BA0F167BBD16757BCA6DD06B53F4B36B24889
S31540200BB0DA2B0DD84C1B0AAFF64A0336607A04412D
S31540200BC0C3EF60DF55DF67A8EF8E6E3179BE694689
S31540200BD08CB361CB1A8366BCA0D26F2536E26852AD
S31540200BE095770CCC03470BBBB91602222F26055509
S31540200BF0BE3BBAC5280BBDB2925AB42B046AB35C2D
S31540200C00A7FFD7C231CFD0B58B9ED92C1DAEDE5B88
S31540200C10B0C2649B26F263EC9CA36A750A936D026C
S31540200C20A906099C3F360EEB8567077213570005C8
S31540200C30824ABF95147AB8E2AE2BB17B381BB60CEC
S31540200C409B8ED2920DBED5E5B7EFDC7C21DFDB0B48
S31540200C50D4D2D38642E2D4F1F8B3DD686E83DA1F6C
S31540200C60CD16BE815B26B9F6E177B06F7747B718C8
S31540200C70E65A0888706A0FFFCA3B06665C0B01116C
S31540200C80FF9E658F69AE62F8D3FF6B6145CF6C16C8
S31540200C9078E20AA0EED20DD75483044EC2B303396C
S31540200CA0612667A7F71660D04D476949DB776E3EC8
S31540200CB04A6AD1AEDC5AD6D9660BDF40F03BD837EC
S31540200CC053AEBCA9C59EBBDE7FCFB247E9FFB53048
S31540200CD01CF2BDBD8AC2BACA3093B353A6A3B4246C
S31540200CE00536D0BA9306D7CD2957DE54BF67D923C8
S31540200CF02E7A66B3B84A61C4021B685D942B6F2A6C
S31540200D0037BE0BB4A18E0CC31BDF055A8DEF022DC7
S31540200D10494249205359535450000200780000005C
S31540200D200000000000000000880D20400000000068
S31540200D3000102120000000000000000000000000FC
S31540200D40000000000000000000000000000000003D
S31540200D50000000000000000000000000000000002D
S31540200D600000000000000000B00D20400000000000
S31540200D70000000000000000000000000000000000D
S31540200D8000000000000000004400610073002000C5
S31540200D9055002D0042006F006F00740000000000D7
S31540200DA0A00D204000000000A00D204000000000C3
S31540200DB052554E545345525650000200880000006A
S31540200DC0000000000000000064C92540000000002B
S31540200DD04CC9254000000000B20120400000000020
S31540200DE0B201204000000000BCC9254000000000A0
S31540200DF0DA012040000000006AD0254000000000B3
S31540200E00F0D0254000000000ACD025400000000076
S31540200E10B201204000000000F0C82540000000003C
S31540200E20BA01204000000000C2012040000000001E
S31540200E301AD12540000000000000000000000000FC
S31540200E40000000000000000000000000000000003C
S31540200E50000000000000000000000000000000002C
S31540200E605D71A2E086E426FCEFD0926E2A8411EDD5
S31540200E702400A6856D45EF506279226509EDA68549
S31540200E806D45EF50A27822650DE9A660228506645D
S31540200E90E27461618280130600020C08EFD0F2747E
S31540200EA079FD930540064808EFF0764669D999675B
S31540200EB073A0071073503000C9BF130600020C08F8
S31540200EC0EFD0B27279F1930560064808EFF03644C8
S31540200ED079FD65BF411122E006E4EFD072672A848E
S31540200EE019E903B5010B178607001306264C8146E0
S31540200EF0B285EF50A215A26022850264410182800C
S31540200F0082800000117106E40AE80EEC12F016F415
S31540200F101AF81EFCA2E0A6E4AAE8AEECB2F0B6F4BB
S31540200F20BAF8BEFC42E146E54AE94EED52F156F5A5
S31540200F305AF95EFDE2E1E6E5EAE9EEEDF2F1F6F593
S31540200F40FAF9FEFD73252014F32510147326301468
S31540200F508A86EF00406573101514A260E261027222
S31540200F60A2724273E2730664A6644665E665067617
S31540200F70A6764677E6770A68AA684A69EA690A7AC7
S31540200F80AA7A4A7BEA7B0E6CAE6C4E6DEE6D0E7E77
S31540200F90AE7E4E7FEE7F426111617300201041117B
S31540200FA006E4EF00C05FEF000031A2600145410139
S31540200FB0828063E0A502B7070040636CF500C54711
S31540200FC0FA0763E8B7000F00F00FB7070102636323
S31540200FD0B500828023B0A7200F00F00F130505042B
S31540200FE0FDB7C1BF411122E006E4EFD0E6312A84A5
S31540200FF019E917430C000333E339029309C59317C4
S31540201000E50123B0F108A260228502644101828075
S31540201010411106E4EFD0A63611E503B7010083B7A8
S3154020102001083CF7A2604101828003B5010785474C
S31540201030821763F3A7003E8582800547AA8763050A
S31540201040E50809476301E50C0145FDEF3707031322
S3154020105003668701832847025C4F185385461358F9
S3154020106086011B55C7010D896582D217BB96A600FE
S31540201070221737D59A3B13781800058A93F8F80338
S31540201080D1932193130505A0630E080A2955631DA4
S31540201090060B1395070237336E0113030360019144
S315402010A0330565023B83D80202131353030233559B
S315402010B06502D9C923AC0501D0CDDCC523A41501D1
S315402010C098C9D4C988E182803707031383674702CA
S315402010D08328C7021857854613D8F7001B55C701E2
S315402010E00D8913D60701BB96A6008E17221737E522
S315402010F0893F13781800058A93F8F803D1932193F2
S31540201100130505E851B7370703138367C7028328BA
S315402011104703185B854613D8F7001B55C7010D8931
S3154020112013D60701BB96A6008E1722173775CF46D2
S3154020113013781800058A93F8F803D1932193130561
S31540201140051099B73DD629558280411106E483374B
S31540201150851081CFEFA0413311CD17950700130598
S31540201160E5D8EF10074AEFE0160817950700130554
S31540201170E5D9C5BFA260410182808280011122E863
S3154020118026E406EC4AE093F405200339850E2A84AA
S3154020119097D508009385054489C49795070093857C
S315402011A065D117950700130565D2EF10874517437C
S315402011B00C00033323C4029313050060EF506215DD
S315402011C0EFF0FFDD99EC8337841081CF833504100F
S315402011D04264E260A26403B58115CA87026905614B
S315402011E08287E2604264A2640269056182800111BD
S315402011F022E806EC1374050CAA850DE893F7051032
S31540201200368581CBEFF07FF4E2602285426405612A
S31540201210828093F7056081C7EFF05FF6F5B72EE43D
S3154020122036E0EFF09FF2A2650265FDB77D54E9BF37
S315402012307DBF411106E4185DB7574305938727358F
S31540201240630CF700179507001305C5E8EF80E137D3
S315402012502955A260410182801C6991E717950700B4
S31540201260130545E9E5B71CE291EA83B78106636B2E
S31540201270F50003B70108BA976376F50083B7810670
S3154020128008653E9588E10145E9B7797122F026EC5B
S3154020129006F4AE842A8432E4EFF07FD0A28702742B
S315402012A0A265A2702685E264456182870F10000000
S315402012B082808280E5BF411106E4EFF03FFFA260C5
S315402012C017430C00033303D1410102830111AA9530
S315402012D022E806EC2A842EE4EFF0DFFD22854264E4
S315402012E0A265E26017430C000333C3C50561028340
S315402012F0828082808280014582800111300097451C
S315402013000C0083B525EA654506ECEF50825801E589
S315402013102265EF10E21DE260056182802A832E8ECF
S3154020132041113285B6853A86BE864287C6877288FF
S315402013309A8873000000410182800111814801484A
S3154020134081470147814601468145414506ECEFF0FC
S31540201350FFFC11E199E1930540DFE2602E850561AE
S3154020136082800111814781480148014781460146D3
S315402013708545414506ECEFF07FFA930740DF01E5CE
S3154020138099C19B870500E2603E85056182800111F7
S315402013902A86814801488147014781468D454145F6
S315402013A006ECEFF0BFF709E9130540DF99C11B852D
S315402013B00500E26005618280130540DFDDBF2A8695
S315402013C037555253AE86814801488147014781456A
S315402013D013054535A1B7797122F026EC4AE806F483
S315402013E04EE452E0BD47AE843289368463E0A71A84
S315402013F00E0597B70A009387679EAA978C63178531
S315402014000700130525D2EF10C71F1064CA86A6858C
S3154020141017850700130505D5EF10A71E6382010225
S3154020142003B78100058B09CF83B5010A1064178560
S3154020143007001305A5D50D8EB385B440EF10671C64
S315402014401470106C0C68178507001305A5D68549BE
S31540201450EF10271B147C10780C7417850700130592
S31540201460E5D7EF10071A346830642C6017850700DB
S31540201470130545D9EF10E718347430702C6C178556
S3154020148007001305A5DAEF10C7175460307C2C7877
S3154020149017850700130505DCEF10A716546C506816
S315402014A04C6417850700130565DDEF1087155478C2
S315402014B050744C70178507001305C5DEEF1067146E
S315402014C0746470604C7C17850700130525E0EF1087
S315402014D047137470706C6C6817850700130585E197
S315402014E0EF102712747C70786C74178507001305EB
S315402014F0E5E213F4E4FFEF10C710835704000D47CD
S315402015008D8B6393E700894917850700130585E38B
S31540201510EF10270F130904FF178A0700130A0AE35F
S315402015208355090052850909EF10A70DE31A24FFB8
S3154020153017850700130505E2EF10A70C854783554D
S31540201540040017860800130666E76382F9021746E9
S3154020155008001306A68717850700130525E0EF1018
S31540201560470A8355240017860800130626E5178563
S3154020157007001305A5DEEF10C7082685EFA02555E1
S3154020158017A5070013058597EF00E73AAA85178523
S315402015900700130525BB85BD014582808280014514
S315402015A0828082808280797122F02AEC32E836E489
S315402015B006F42E84EF40851A6265A266426663541D
S315402015C0050493171500858325476383E702636ED9
S315402015D0F700ED578583E98F15476396E702014566
S315402015E017430C00033303C309A82D47639DE70027
S315402015F0014517330C000333E3750293A27022850D
S31540201600027445618280A285EFF0FFDC0000000075
S3154020161000E104E523382501233C350123304503E9
S315402016202334550323386503233C7503233085052E
S31540201630233495052338A505233CB50523301506C7
S31540201640233425060145828000000000000000006A
S315402016500000000000000000000000000000000024
S31540201660006104650339050183398501033A050282
S31540201670833A8502033B0503833B8503033C0504EC
S31540201680833C8504033D0505833D8505833005065A
S315402016900331850613B515002E9582800000000083
S315402016A00000317126F5AE8497F508009385052C08
S315402016B006FD22F94AF14EED52E956E55AE1DEFCA5
S315402016C0E2F8E6F4EAF0EEEC2AE002F802FC82E0E8
S315402016D082E4EF00160163530502814AEA704A7498
S315402016E0AA740A79EA694A6A0A6BE67B467CA67C32
S315402016F0067DE66D5685AA6A29618280DC40B7065A
S31540201700FF002A891BD787011B968701598E1B9775
S315402017108700758F598E4167130707F09BD787003F
S31540201720F98F5D8E1B060640A6852685EF10B629C5
S31540201730AA8A6359050017F508001305A524EF006A
S31540201740576C69BF0265CA857D5AEFF0753D1C18F6
S315402017502A84054B130C810197FC0800938C0C2698
S31540201760135A0A023EE4130D4101930D0102E3464A
S3154020177004F602650146A285EF00E60DAA8A0265B7
S315402017800148E2870147E6862286CA85EFC0961F32
S31540201790AA896305450D226513060002D685EFF01A
S315402017A0C62B226593050004EFF06636AA8B0DC53D
S315402017B0226593050002EFF0A640AA8A930500020F
S315402017C05E85EFF0E63FBB8AAA4093870A04180855
S315402017D0B38AE70023800AFEE267A2650147FD1728
S315402017E0338537012AF4EA866E8626854EF0EFC089
S315402017F0F63EAA8A635A0502F9576307F5022A88F4
S3154020180097F708009387071C17770700130707A247
S315402018109306100517F608001306461D8D45130539
S315402018206007EFC0116C5DBD0265814617F6080062
S315402018301306C61DA285EF00A6481DC563000B02F0
S31540201840D2452685EF009612AA850147814617F68E
S3154020185008001306A61B2685EF10C6780265A285CA
S31540201860EFF0152E2A8421B7014BCDBF797126EC96
S3154020187006F422F05C41B706FF00AA851BD78701F4
S315402018801B968701598E1B978700758F598E416706
S315402018909BD78700130707F0F98F5D8E1B0606023C
S315402018A0AA84EF105612635C05022A8497F7080033
S315402018B09387470D176707001307C73793065009C5
S315402018C017F60800130686128D4513056007EFC0EC
S315402018D05161A27022850274E264456182809785B7
S315402018E007009385A5AD2685EF00A65F2A84635819
S315402018F00502178607001306E6AC81452685EF10BC
S3154020190076032A84635D050097870700938707AC93
S3154020191017670700130707329306C00955B783A7F1
S3154020192081153706FF00A2859BD687011B97870125
S31540201930558F9B968700F18E558FC166938606F00C
S315402019409BD78700F58FD98F7400114717860700DC
S315402019501306C6A926853EC6EF10C6682A84E34AE2
S3154020196005F603B5010EA685EFF0BFD31B0405008F
S31540201970E351A0F60144B1BF000000000000000082
S31540201980AA8293360601F5E293867200E19A638A2B
S315402019905600338756402380B2008502E3EDD2FEBF
S315402019A0198E93F5F50F93968500D58D939605015F
S315402019B0D58D93960502D58D137786FFB386E200A3
S315402019C01377870F11CF3307E04013070710B382F1
S315402019D0E24097370C0083B7E7240583BA9782877E
S315402019E023B0B20023B4B20023B8B20023BCB20065
S315402019F023B0B20223B4B20223B8B20223BCB2024D
S31540201A0023B0B20423B4B20423B8B20423BCB20434
S31540201A1023B0B20623B4B20623B8B20623BCB2061C
S31540201A2023B0B20823B4B20823B8B20823BCB20804
S31540201A3023B0B20A23B4B20A23B8B20A23BCB20AEC
S31540201A4023B0B20C23B4B20C23B8B20C23BCB20CD4
S31540201A5023B0B20E23B4B20E23B8B20E23BCB20EBC
S31540201A6093820210E3EED2F61D8A01CAB386C200E3
S31540201A702380B2008502E3EDD2FE82800000000082
S31540201A8000000000000000000000000000000000F0
S31540201A90B302B54063E3C20061A0AA823295B295F3
S31540201AA0C146636BD602137685FF630AC500FD15D2
S31540201AB0838705007D152300F500E31AC5FE93F6BE
S31540201AC075009DE69D0263F8A200E1159C616115B3
S31540201AD01CE1E3ECA2FEE512630A5500FD1583875F
S31540201AE005007D152300F500E31A55FE16858280F4
S31540201AF0139E3600B30EC041E1999C619D023397F7
S31540201B00D701E1159C6133D6C701598E611510E185
S31540201B10E3E7A2FEE512B695C1B70000000000003B
S31540201B20AA8FB302C500C1466367D60A130675005D
S31540201B30619A630AC5008387050085052300F50061
S31540201B400505E31AC5FE93F67500D5E2938212F891
S31540201B50637855069061946598699C6D03B8050233
S31540201B6083B8850203B3050383B3850303BE050407
S31540201B7083BE850403BF050510E114E518E91CED75
S31540201B80233005032334150323386502233C75028D
S31540201B902330C5052334D5052338E505B06DB4710A
S31540201BA0B875BC7903B885079385050830ED34F1BF
S31540201BB038F53CF9233C050713050508E36C55F831
S31540201BC093828207637855009C61A1051CE121051B
S31540201BD0E36C55FE9D02630A550083870500850503
S31540201BE02300F5000505E31A55FE7E858280139E67
S31540201BF03600B30EC041E1999C61E51233D7C70147
S31540201C009C65A1053396D701598E10E12105E367DE
S31540201C1055FE9D02B695C1B70000000000000000A9
S31540201C200000000001111306F1008545130500054B
S31540201C3006ECEF0090736340A002978508009385D9
S31540201C40659F178508001305659FEFF0702C295571
S31540201C50E260056182808347F10013071006638B9B
S31540201C60E7026366F702130710046385E70213074A
S31540201C702004638DE702978508009385A59B1785E9
S31540201C8008001305A59BEFF0B0280945D1B71307E7
S31540201C902006C5B7971509009385C55217850800B4
S31540201CA01305C599EFF0D02601455DB79785080005
S31540201CB09385C5991785080013054598EFF050255B
S31540201CC0054579B73707021385479306473033953D
S31540201CD0A7009C421346F5FFF18F9CC2836747318C
S31540201CE0E98F6310F5008280397106FC22F826F4CC
S31540201CF0370404134AF04EEC52E856E4EFF0EFDF97
S31540201D005C50130744089306040993F707FC93E7AE
S31540201D1017005CD01C437179B709008193F707F807
S31540201D2093E767021CC398425C5C1309F90FFD19BF
S31540201D30B3F72701337737013706003FB70A00C18B
S31540201D40518FFD1A93E7071098C2B3F757019306B0
S31540201D50440937070001D98F9842812793F707FC1A
S31540201D60137707F81367170498C293E717005CDCCC
S31540201D701307C4091C43E1749384F40F116A930634
S31540201D800AE0E58FD58F1CC35C5437070080554544
S31540201D9093F707FC93E787005CD47C54130A0AB078
S31540201DA093F707F893E767017CD4B70702131386A6
S31540201DB0071F1442D98E14C21386471F1442D98E48
S31540201DC014C21386871F1442D98E14C21386C71F86
S31540201DD0144293870720D98E14C29443558F98C3B3
S31540201DE0EFF05FEE5945EFF0FFED5D45EFF09FEDEB
S31540201DF06145EFF03FED6545EFF0DFECB706241087
S31540201E00DC423707F9FF7D17F98F3707DA00D98F7C
S31540201E10DCC2370703131C4FB706020013054420C4
S31540201E20D58F1CCF1C4C3707002AB7060015B3F7B1
S31540201E3027011CCC3C4C93058408E58F93E707701B
S31540201E403CCC1C48B3F75701D98F1CC83C481307D4
S31540201E50C40CB3F737013CC81C43B3F73701D58FC1
S31540201E601CC35C481307040D93F707FC93E7B7029E
S31540201E705CC87C4893F707F87CC81C4393F707F85F
S31540201E8093E767011CC31041185C345C1D9A1366A6
S31540201E90E6009C413377270110C13706C1FF7D16E6
S31540201EA013670710718F4166518F18DC33F7960000
S31540201EB0B70681FFE58FFD16758FB3E7470138DCFE
S31540201EC0F58F37073C00D98F9CC1130484201C40D2
S31540201ED001459D9B93E7E7001CC04274E270A274C3
S31540201EE00279E269426AA26A216182805D7186E452
S31540201EF0A2E026FC4AF84EF4B7070217DC570547FE
S31540201F008D8B638FE7000947638BE7029785070030
S31540201F10938545B091CB978507009385A5B229A097
S31540201F2097850700938505B117850700130505AFEB
S31540201F30EFF0007E974509009385C53839A89785E7
S31540201F4007009385A5AF17850700130525ADEFF04C
S31540201F50207C974509009385E530178507001305B2
S31540201F60E5ACEFF0E07AEFF0FFCB2A84EF00B03D0E
S31540201F709357450093F7F70F29476397E71419CCF2
S31540201F80370700175C4BB7060001D58F5CCBB707E8
S31540201F9002139387471A9843558F98C3B70601175C
S31540201FA0DC463707E4FF7D17F98F37070400D98FC2
S31540201FB037070313DCC6130707091C43B70600017E
S31540201FC08D9B93E707011CC3B70702131386471A55
S31540201FD018429387C719558F18C29843558F98C36F
S31540201FE083B5810617850700130545A6EFF0E077F0
S31540201FF083B5010817850700130545A6EFF0E0765F
S31540202000300881451305C006EF40120DAA844DE5E0
S31540202010A1666265FD160547368697350C0083B561
S3154020202065CCEF40032249E903B5010E97850700A9
S315402020309385C5A3EFF0F56AAA85634F050603B5D8
S31540202040010E8146174609001306463CEFB0163668
S315402020502A843DC193098100CE8517850700130543
S3154020206065A3EFF0902C13090101CA851785070057
S31540202070130545A3EFF0702B1946CE852285EFF048
S315402020803FAA1946CA8513058400EFF07FA9EFF0D1
S315402020907FB92308A400EF00102B9357450093F7F0
S315402020A0F70FA94605476387D700D517B337F00002
S315402020B01B971700A308E400A66006644279A2791C
S315402020C02685E2746161828019CC370700175C4B04
S315402020D0B7060001D58F5CCBB70702139387471A03
S315402020E09843558F98C3B7060117DC463707E4FF58
S315402020F07D17F98F37070400D98F37070313DCC6BE
S31540202100130707091C438D9B93E747001CC3C9BD92
S31540202110B7D7396C1D719387C7F63EC0ED77938745
S31540202120E7DD2312F100B7D7397C9387C7F63EC443
S3154020213099679387E7DA100897350C0083B585E8C9
S3154020214013057003A2E8A6E486ECCAE02316F10044
S31540202150EF4022748A84200015E5426513098101E7
S31540202160C1464A86A145EFE0A226C1476306F50A45
S31540202170976507009385850D17C50800130585A427
S31540202180EF002748A685178507001305A590EFF091
S31540202190701EA285178507001305C590EFF0901D88
S315402021A0EFF05FA803B6010E241097C5080093856B
S315402021B065A32685EF00273FA68517C5080013058A
S315402021C0E5A2EFF0E05497C50800938525A317C5EF
S315402021D00800130525A3EFF0A053426505641309B3
S315402021E0F4FF914626869305C07F4AD4EFE0421EEF
S315402021F091476304F504976507009385A5A417C501
S315402022000800130525A1EF00C73FE6604664A66493
S315402022100669014525618280034781019307F00FB6
S31540202220E302F7F6CA8519462685EFF07F8F1946D1
S315402022300C102285EFF0DF8EB1B7A257130704EFBB
S31540202240B3F72701638AE702130704FF6381E70296
S315402022501304048F97C508009385459EE39787FA14
S3154020226017C508001305059AEFF0804A79BF97C530
S3154020227008009385259DEDB797C508009385059D54
S31540202280C5B70111300081451305900206EC22E8BE
S31540202290A3030100EF4042641DE913047100228626
S315402022A085451305B005EF00500C85476311F502AF
S315402022B081452285EF008747C14763EAA700C1676A
S315402022C093876711B3D7A700858B012591E30145F5
S315402022D0E2604264056182802A87014549C7C1C5BB
S315402022E0617581468147A14815050346070013D8E5
S315402022F0F7009B9717003B56D640C217C193058AD5
S315402023008526D18F63881601E30108FEA98FC2175F
S31540202310C193E1BFFD3563050800A98FC217C1935C
S3154020232081C505078146D1B7E1764147950613D643
S31540202330F7009B971700C217C19301C6B58FC217E6
S31540202340C1937D376DF7C146014505472166B37573
S31540202350F60081C5598D42154191FD3605861B17DC
S315402023601700F5F68280828017E70D00032787ED58
S3154020237085476314F70E411117F5080013050576B6
S3154020238006E422E0EF00E72717E40D00130484E774
S315402023900C6017F5080013056576EF0087260C6458
S315402023A017F5080013058576EF00A7251C6C17F551
S315402023B008001305257783D50700EF0087241C6C7A
S315402023C083D5070089476393F5081C7017F50800E5
S315402023D01305C57683C50700EF00A7221C7417F5A1
S315402023E008001305257783C50700EF0087210C7861
S315402023F017F508001305857703C8550083C74500A0
S3154020240003C7350083C6250003C6150083C50500CE
S31540202410EF00271F0C7C17F508001305A57803C885
S31540202420550083C7450003C7350083C6250003C62C
S31540202430150083C50500EF00C71C0264A26017F58E
S3154020244008001305257C41016F00A71B17F50800DE
S315402024501305C578EF00E71ACDB78280397122F887
S3154020246052E897E70D009387E7C906FC26F44AF021
S315402024704EEC56E403E9870083D9670017E40D0044
S31540202480130404C93E992A8A638A09044440228552
S315402024909B856400939705028193A29783DA070070
S315402024A0EFF09FE31B070500035604009B860A00B6
S315402024B0639EEA0063164603E27022854274A27444
S315402024C00279E269426AA26A2161828083552400A8
S315402024D01785080013058599EF00A7120144E9BF27
S315402024E082148190A1042694637B89004A86A28522
S315402024F0178508001305059BEF00A710C5B7FD39C2
S3154020250061B7797122F04AE806F426EC17E90D0006
S31540202510130949D30327090085470144630DF70270
S3154020252034000546930500050145EF6042282A847C
S3154020253009ED22659306001017E60D00130686BCAA
S315402025408145EF50926C2A8411CD17E5080013057A
S315402025506507EF00070BA27022850274E264426988
S3154020256045618280114697E508009385250717E542
S315402025700D00130525B9EFE066562A8417E50800B5
S315402025801305450631E00545EFF05FED15C997E4A3
S315402025900D00938424C79307E5019CE0814593076A
S315402025A0E503130555059CE4EF00471888C81145F7
S315402025B0EFF0DFEA0DE117E508001305250829A00D
S315402025C017E5080013058505EF00A703FD572320CF
S315402025D0F9007D5449B7930785009CEC0357850045
S315402025E08947631DF7009307A5009CF09307B50024
S315402025F09CF49307C50049059CF888FC8547232011
S31540202600F90091BF5D712AE4114586E4A2E04AF8BB
S3154020261026FC4EF452F056EC5AE82E89EFF01FE491
S31540202620A2652A8417F508001305C5852EE0EFE03C
S31540202630C65082652A8617F508001305A584EFE063
S3154020264046390DED8144194A9309810017EB0D0057
S31540202650130B4BBB930AA00322658347050099C3FE
S31540202660639244054C402285992593940502819096
S31540202670A294EFF07FC62390A40019A897F50800EE
S315402026809385458017F508001305C580EFF07677CA
S31540202690A6600664E2744279A279027AE26A426BC3
S315402026A061618280CE8563120902EF002708833755
S315402026B00B03A6972380A700A26703C707006314CE
S315402026C0570185073EE4850441BFEF00270683373F
S315402026D08B03C5B71D71A6E493050010AA84173550
S315402026E008001305A51AA2E8CAE056F45AF05EEC93
S315402026F062E866E486EC4EFC52F80144EFF07670D0
S31540202700930BF00F173908001309C91A3D4C178B44
S315402027100700130BAB7E930A0010973C0800938C5E
S31540202720EC189379F4009B050400338A8400639E59
S3154020273009006685EFF0F66C83450A004A85EFF07E
S31540202740566C630E74030504E9BF83450A004A8527
S31540202750EFF0366BE39789FF5A850504EFF0766AEA
S31540202760E31154FDE6604664A6640669E279427A3E
S31540202770A27A027BE26B426CA26C2561828046641F
S31540202780E660A6640669E279427AA27A027BE26B27
S31540202790426CA26C178507001305457625616FF0BC
S315402027A0566629710546930500053400014526F6EF
S315402027B006FE22FA4AF24EEEEF50727FAA84114666
S315402027C097E50800938585E117E50D001305859368
S315402027D0EFE0C6303DE10144B1E0856497E90D0064
S315402027E09389499293848438130900102265A1461F
S315402027F0338689009B050400EF50B25305E12685B8
S315402028002104EFE0266AE31324FF2265000893069D
S31540202810001022868145EF50523F39C1FD5717E5BA
S3154020282008001305A5A217E70D00232DF7A0EFF00A
S31540202830565D0808EFF01FEA19A897E50D00938525
S31540202840658C17E508001305E59DEFF0965B7D54F2
S31540202850F27022855274B2741279F26931618280A3
S31540202860A2851306001017E50D001305A589EFE094
S31540202870E6482A8445F517E508001305259FEFF01D
S315402028805658F9B7397106FC22F826F44AF04EEC30
S3154020289085476315F600EFF03FAD19A88D4932897B
S315402028A063D0C902172508001305C59EEFF076555B
S315402028B00145E2704274A2740279E2692161828004
S315402028C0846697250800938565D036842685EFE073
S315402028D0E61E09E997E70D0023A60796EFF07FC28B
S315402028E069F955BF97250800938545CF2685EFE0A2
S315402028F0E61C51ED314697950A009385255E17E5EE
S315402029000D0013052580EFF0AFA11306000697951D
S315402029100A009385A55617D50D001305657FEFF060
S315402029202FA0714697950A009385455397D40D005D
S315402029309384447D17E50D0013058583EFF04F9E64
S31540202940804817D50D001305A57C19249B05040046
S31540202950EFF09F98021497D70D009387677B0190DD
S315402029603E942310A400A05817E50D00130545807A
S3154020297019249B050400EFF03F960214019097D747
S315402029800D009387E77E3E942310A40015B7972524
S3154020299008009385A5C52685EFE0461201E94274D5
S315402029A0E270A2740279E2692161E5BBE31C39EF4A
S315402029B0114697E50800938565C217D50D00130586
S315402029C06574EFE0A61111C517250800130505C348
S315402029D0F1BD97250800938565C82685EFE0060E4C
S315402029E0814511C997250800938545C82685EFE07E
S315402029F0E60C11E585450868EFF0DFC055BD972503
S31540202A0008009385A5C72685EFE0460B0DED0468A3
S31540202A101145EFF0BFA42A84414681452685EFF033
S31540202A20964697D70D0083B7E77F2380A7004C4073
S31540202A3022859925939405028190A294EFF0DF890F
S31540202A402390A400B5B597250800938525C42685EF
S31540202A50EFE0C60639E100681145EFF03FA0834616
S31540202A60040065461B87F6FB1377F70F6377E6006E
S31540202A7017250800130585C215BD17D70D00033746
S31540202A80E77A2300D7004C419925139705020193F5
S31540202A903304E500EFF05F84C5BD97250800938594
S31540202AA0E5C32685EFE08601E31E05DE0C68054575
S31540202AB02EE4EFF0BF9AA2652A841306000217D5AA
S31540202AC00D000335A574EFF0AF8595B7411106E4A7
S31540202AD022E0EFF01FA301CD17D50D001305856227
S31540202AE0EFF05FBFA260026401454101828017D4A6
S31540202AF00D00130424710C7817750700130585F90A
S31540202B00EFF040070C7C177507001305A5F9EFF089
S31540202B10600617B508001305E5F1EFE0F07801E906
S31540202B200C6417B508001305E5F0EFE0703E1C6C09
S31540202B3017B50800130585F083D50700EFF0762CEE
S31540202B40EFF09F8245B7411106E4EFF09F9B930734
S31540202B50F00F01E917D70D000337C76C19C3834718
S31540202B600700A2603E8541018280011122E826E4C9
S31540202B704AE006ECAA842E843289EFF09F980DED28
S31540202B809307F00F63CA9702BB8684001307001091
S31540202B906354D7001B8406F097D50D009385855640
S31540202BA02286A6954A85EFE0BFF7E26022854264F9
S31540202BB0A2640269056182807D54C5BF011122E865
S31540202BC006EC26E44AE085477D5463D3C7048866ED
S31540202BD08145B2843689EFF076352A84AA85171541
S31540202BE00800130525AAEFF0D6219B85F4FF228500
S31540202BF01306890017230C000333C31B0293AA85AF
S31540202C003334A00017150800130545AAEFF0761FA8
S31540202C10E26022854264A2640269056182805D7118
S31540202C20A2E026FC4AF84EF4B28486E47D36368409
S31540202C302A89AE89A106635FC00808642C0836E459
S31540202C4032E0EFF0B62EE26703C707009307A003F2
S31540202C5063ECE7009797070083B747B6B3D7E740BB
S31540202C60858B0266A266BDC70864254697950A00ED
S31540202C7093854575EFA0117B1B86E4FF93060401DF
S31540202C8015C5186D8547630BF7029377170085EBBB
S31540202C9097270C0083B7073783A7C71363C1E7027B
S31540202CA017F5070013050511EFF0B6157D55A660FB
S31540202CB00664E2744279A279616182801D470148A7
S31540202CC097270C0083B707340127CE854A85EF1016
S31540202CD0C100F1BF0664A660E274CE854A85A2791A
S31540202CE04279054897270C0083B7C7311307F071FF
S31540202CF061616F00917E011117F50700130505EFFD
S31540202D0006EC2EE4EFE0505AA265E26005616FA022
S31540202D10915A4111AA8522E02A8417750800130585
S31540202D20655206E4EFF0F60D2285EF8001298547AE
S31540202D30630AF50089476304F50A177508001305E9
S31540202D40E55FA9A81775080013054552EF60F107FE
S31540202D5018403706FF00177508001305A5529B56E5
S31540202D6087019B178701D58F9B168700F18ED58FBC
S31540202D70C1661B578700938606F0758FD98F3727F4
S31540202D800527812713076795639AE7002285EF7009
S31540202D90D12801ED1775080013054550EF60F10263
S31540202DA00545A2600264410182802285EF70B16DA3
S31540202DB01775080013050550EF6031012285EF7025
S31540202DC0F12B11E5177508001305C550C1BF1775BE
S31540202DD008001305A551EF60417F0145D9B7177506
S31540202DE0080013052551EF60417EFD552285EFA051
S31540202DF0C11111C5177508001305455145B72285E0
S31540202E00EF90711E2285EF90D17B61F917750800EE
S31540202E101305455161B7854763C8C70097270C00FE
S31540202E2083B7C7568863F5B5797122F026EC4AE810
S31540202E304EE406F43284368985448149939734009A
S31540202E40CA9788638145EFF0760EEFF09FEC11C16B
S31540202E50854985049B870400E3C287FEA2700274DD
S31540202E60E26442694E85A26945618280797122F089
S31540202E702A84177507001305E53826EC06F4AE8438
S31540202E80EFE0904219E50145A2700274E264456183
S31540202E908280977507009385E537EFD0364265F5F2
S31540202EA097270C0083B7874E8C6317750700130549
S31540202EB0E53626E002E4EFF0C6748A86054681456B
S31540202EC02285EFF0DFD5C9B7B68717480C0013081F
S31540202ED068D497260C009386E6523308D840135878
S31540202EE03840AE869795070083B5C58DBB05B80299
S31540202EF032872A8617250C001305C5506FA07162AC
S31540202F00411106E4854717B508001305A56C63D320
S31540202F10C7008866EFE0362215712C001306800C18
S31540202F20014586EDEFC0465CEFF0A66D17250800FB
S31540202F301305C566EF606169172508001305856A84
S31540202F40EF60A168EE6001452D6182805D7152F08F
S31540202F502A8A3285A2E026FC4AF84EF486E456ECCC
S31540202F602E84B2843689EFB042358947AA896309CF
S31540202F70FA0C63C74709854763FB4713086497657F
S31540202F80070093852578EFD07633631E05160868AB
S31540202F908145EFF0A679AA8A086C8145EFF006793B
S31540202FA02A8A08708145EFF06678032609002A8729
S31540202FB02A84D286CE851765070013052575EFF03E
S31540202FC0466483250900528626855687A286EFB019
S31540202FD08272AA84176607001306C6676306A40092
S31540202FE01766070013068667A6851765070013052B
S31540202FF0E574EFF00661330594403335A000B1A85F
S315402030008D47E31DFAF608640D46976507009385BC
S31540203010E565EFD0B62C55E908688145EFF0667135
S315402030201B040500A2852685EFB0024835E52320FE
S315402030308900176507001305E568EFF0865C29A827
S3154020304008640D46976507009385C561EFD016291C
S3154020305011ED2685EFB0823B0145A6600664E274F9
S315402030604279A279027AE26A6161828008640D46D9
S31540203070976507009385855FEFD0562605E1832522
S3154020308009002685EFB0023F61D9CE851765070036
S315402030901305455EEFF0E6560545C1B7086411466F
S315402030A0976507009385055FEFD0562319C17D5557
S315402030B06DB72685EFB0A22C45D1CE851765070082
S315402030C01305C55DEFF0E65341BF08641146976589
S315402030D007009385255CEFD0762071F908688145F5
S315402030E0EFF026651B060500B285268532E4EFB053
S315402030F0E22E226635D1CE85176507001305855EFB
S31540203100EFF0265051BF0864976507009385856484
S31540203110EFD0D61A49FD08688145EFF02661AA8A84
S31540203120086C8145EFF086602A8A08708145EFF069
S31540203130E65F032609002A872A84D286CE8517652C
S3154020314007001305A561EFF0C64B8325090052867B
S3154020315026855687A286EFB02262AA841766070084
S315402031601306464F6306A400176607001306064F4C
S31540203170A685176507001305E561A5BD397122F8B7
S315402031802A84177508001305E53406FC26F44AF010
S31540203190AE84EF70B4742A892285EF701162854718
S315402031A0630AF5008947630FF50C17750800130568
S315402031B0E543B9A018403706FF00177508001305E8
S315402031C0E5319B5687019B178701D58F9B16870034
S315402031D0F18ED58FC1661B578700938606F0758F73
S315402031E0D98F37270527812713076795639AE700E5
S315402031F02285EF70816211ED177508001305852F22
S31540203200EF60A13C0545E2704274A27402792161C7
S315402032108280630B09002285EF70416611E51775A0
S3154020322008001305252EE9BF0347E4019947177582
S3154020323008001305252EE315F7FC3C40B706FF0092
S31540203240130504041BD787019B958701D98D1B97AE
S315402032508700758FD98D41679BD78700130707F065
S31540203260F98FDD8D8215819191E51775080013053B
S31540203270652B79B71C411105F5FF01468125EFA045
S31540203280710451B7FD552285EF90314811C5177508
S3154020329008001305252AADB795E89775080093854C
S315402032A0E52A2285EFE0F543AA8563570500177581
S315402032B008001305252AA9B7814617760800130664
S315402032C0662B2285EFE0D51FAA8475D1A685228557
S315402032D0EF80115AAA85635A0500A68517750800FE
S315402032E01305C529EFF0E63131BF2AE41946228578
S315402032F0EF90B13CA26511E5177508001305052A24
S3154020330001B7630D090022852EE4EF90F125A265D1
S3154020331011E5177508001305E529DDB534081008B1
S315402033202285EF80516711C5177508001305852939
S31540203330C1BD4265E26591B7011106EC22E802E47F
S31540203340854763C4C702B70700413EE0826517251B
S3154020335008001305A5C3EFF0C62AA2650265EFF063
S31540203360FFE1E260426405618280368497270C0043
S3154020337083B7C7018C63086434000A86EF80D1473F
S3154020338071F508648145EFF0663A2AE0C1B7AE860A
S315402033904146AA85176507001305C5276FF066269F
S315402033A0AE864146AA85176507001305A5276FF007
S315402033B046258280017186FFA2FBA6F7CAF3CEEF8F
S315402033C0D2EBD6E7DAE35EFF62FB66F76AF303B435
S315402033D0010017E50700130565692C6CEFF03FFBEC
S315402033E03C7495C7814517E5070013052569EFF01D
S315402033F01FFA2C7017E5070013054569EFF05FFAB1
S315402034002C7417E5070013056569EFF07FF90C600A
S3154020341017E50700130505690A89EFF05FF70C6485
S3154020342017E5070013050569EFF07FF60C6817E5E9
S31540203430070013052569EFF09FF583A5010117E5E0
S31540203440070013052569EFF0C61B83B5810717E5ED
S3154020345007001305A569EFF09FF383B5010A17E529
S3154020346007001305A569EFF09FF21306000497E5C0
S3154020347007009385A56917E507001305A569EFF0B1
S315402034804618EF10C704AA8517E507001305856976
S31540203490EFF0261797E507009385456A4A85EFD0D2
S315402034A0A65A4A85EFE040602A8609E517E60700D6
S315402034B01306465ACA8517E507001305A568EFF097
S315402034C0461417E507001305E568EFE0E05DAA8599
S315402034D017E5070013058568EFF0A61283B5010EA0
S315402034E017E5070013050569EFF07FEA83B5810EDE
S315402034F017E5070013050569EFF07FE983B5010F4E
S3154020350017E5070013058568EFF07FE8CA851305A0
S31540203510C006EF2052740DC903B6010E79EA17236F
S315402035200C00033323930293FE705E74BE741E799F
S31540203530FE695E6ABE6A1E6BFA7B5A7CBA7C1A7D2D
S315402035400145130101208280826797E9070093890C
S31540203550695117BA0800130AEA07806B97EA0700F1
S31540203560938ACA6317EB0700130BCB63130484FAC1
S3154020357097EB0700938B8B64054C97EC0700938C55
S31540203580EC6417ED0700130DED648267130784057D
S31540203590C107E303F7F8832784081064CE86858B1A
S315402035A091C3D286D6855A85EFF0A605832784080F
S315402035B0858B85CF2285EF10D27E0C71AA845E85BD
S315402035C0EFF01FDE8C7899C517E507001305855F58
S315402035D0EFF01FDD984483D6240003D604003B1722
S315402035E0EC00E6856A85EFF0C601206C130484FA68
S315402035F069BF83B501004A85EFC076174A85EFC07B
S31540203600466D31BF05476359C704797122F026ECD0
S315402036104AE806F4B687AA8488672E891B04F6FFF3
S31540203620A106094697950A009385450436E4EFA0FE
S31540203630615F01CD228602741C6DA266A270CA8586
S3154020364026854269E26445618287A2700274E264FB
S3154020365042697D55456182807D5582808D476317BD
S31540203660F604886679710146814506F422F026ECF7
S31540203670B684EFF046011B04050088680146814563
S31540203680EFF066009B05050022852EE4EFB0A25E92
S31540203690A2652286176507001305452CEFE076764E
S315402036A0A2700274E2640145456182807D55828024
S315402036B07971280006F4EFB0E263E2475247C246EA
S315402036C03246A245176507001305452CEFE0767371
S315402036D0A270014545618280011106EC22E826E46C
S315402036E097D40D00938484B7886017D40D001304B3
S315402036F064B7EF80F5710860EF80957123B00400C0
S3154020370023300400E260426497D70D0023B407B407
S3154020371097D70D0023BC07B2A264056182807971D8
S3154020372006F422F026EC2A84AE8402E002E4EF007E
S31540203730914BEF10753D228530008A85EF30D513A9
S315402037402A84EF1095392DC01318140013581800E9
S3154020375097E707009387075017570700130707185F
S315402037609306D01517E607001306C6508D45130558
S31540203770B007EFA0117722686308080297E7070091
S315402037809387475017570700130747159306001688
S3154020379017E607001306064E8D451305B007EFA022
S315402037A051742265EF80D566EF10557B2685EF60F4
S315402037B0013EEFB09551A27022850274E2644561C4
S315402037C082805D71A2E026FC4AF84EF452F056EC17
S315402037D086E497DA0D00938AEAA783B70A00BA846B
S315402037E036972A89AE89328A3684636BF70017D793
S315402037F00D000337A7A5BA9763E4D700EFF0DFEDB6
S315402038000146A6852285EF80453B01C9FD55228587
S31540203810EF90A16F31E981440144EFF0FFEB23B0F3
S315402038208A0097D70D0023B397A2930A81008A84F2
S315402038305687A6865286CE854A85EF50952E15ED1B
S315402038408267226417D70D00233AF7A009C8568607
S31540203850A6852285EF50B5242285EF80755BA26729
S3154020386017D70D002330F7A0A6600664E27442798C
S31540203870A279027AE26A61618280EFF0FFE5EDB7D4
S31540203880130101CD233C91300408233821311306FE
S31540203890002E2A89814526852334113223308132D0
S315402038A02334313123304131233C512F2338612F6A
S315402038B0EFE00F8D63130912014417190C000339E9
S315402038C06948614A971A0C0083BA4A7A11A00504BE
S315402038D083378906637FF404B30944038335090794
S315402038E041465685CE95EFD0664175F18337090717
S315402038F00144CE9783C6170103C70701A206D98E76
S3154020390003C727014207558F83C63701E206D98E62
S3154020391003C747010217558F83C65701A216D98E72
S3154020392003C7670183C777014217558FE217D98F9F
S31540203930A9E717350800130565D7EFE0E01635E10E
S3154020394017350800130585D7EFE0001639E97D5471
S3154020395097370800938787D71757070013070737E6
S315402039609306801117E607001306C6308D451305CA
S31540203970B0077E14EFA0F156390483308132228578
S315402039800334013283348131033901318339813023
S31540203990033A0130833A812F033B012F1301013330
S315402039A082808145EFE096582A8905E997370800B5
S315402039B09387C7D317570700130747319306E0115C
S315402039C07D5417E607001306E62A8D451305B007F2
S315402039D07E14EFA0115105044DB74A85EFD085449A
S315402039E061CD97370800938767D31757070013078A
S315402039F0E72D93066012E9B783274900370BFF006E
S31540203A00416A1BD787011B968701598E1B978700D2
S31540203A1033776701130A0AF09BD78700A26AB3F768
S31540203A204701598E5D8E02160192CA855685EFE072
S31540203A302F8F1B1444019BD78901337464019BD972
S31540203A4089005D8CB3F949013364340123A28A008D
S31540203A50226481460146A2852685EF80E13901CD43
S31540203A6097370800938787D11757070013070726EC
S31540203A7093062013B1B72285EF60E53DA285171541
S31540203A800C000335A55EEF20D5422A84E30705EED8
S31540203A9097370800938707D117570700130707233F
S31540203AA09306C01317E607001306C61C8D4513055B
S31540203AB0B007EFA01143D1B583B70100FD55B877C4
S31540203AC011C3AC73832749003706FF000D649BD68C
S31540203AD087011B978701558F9B968700F18E558FBF
S31540203AE0C166938606F09BD78700F58FD98F3D9C7C
S31540203AF002148567FD1701903E94135AC400318401
S31540203B009B19C400139B0902135B0B02B707F007EE
S31540203B10DA97930A8100AE97D6865286A545054503
S31540203B203EE4EF80D517E30905ECDA850565EF60BD
S31540203B3051302AE4D6865286A5450545EF8035166E
S31540203B40E30C05EA97370800938747BF17570700C6
S31540203B50130747079306B00C17E60700130686118E
S31540203B608D451305B007EFA0D1377D549737080010
S31540203B70938747BF17570700130747159306D01259
S31540203B8017E607001306060F8D451305B0077E146A
S31540203B90EFA031352504D5B35D714AF84EF42A8914
S31540203BA086E4A2E026FC52F002E417C50D00033558
S31540203BB0E56AAE8911C597C50D0083B5A56AA9E505
S31540203BC04E86CA850145EF50455FAA842800EF10EE
S31540203BD0355E2A8419E92265268697150C0083B519
S31540203BE06534EF20F5182A841DC12265EF2085799A
S31540203BF02685EF80F521A66022850664E274427907
S31540203C00A279027A61618280EF504518AA84EF102A
S31540203C10A56F97150C0083B5E5288C611C084E8747
S31540203C20CA8626860145EF30A55F2A84EF10E56ACD
S31540203C300DC4973708009387E7E317570700130704
S31540203C4067E49306401E17E607001306A6028D4535
S31540203C501305B007EFA0F12849BF17350800130513
S31540203C60E5E2426AEFD05064AA8931C1FD55EF00A2
S31540203C70663E13041500060485452285EF60615C87
S31540203C802AEC2A890DC17D56CE852808EF00264E7E
S31540203C90A2854A865285EF8025312A8411C94A85D4
S31540203CA0EF50F16E99B77D547E1425043DBF0149EE
S31540203CB04265CA85EFF0BFA62A8405BF854763CAF9
S31540203CC0C7007D5582807D55E2704274A274216181
S31540203CD08280397122F826F406FCB2843684EF803D
S31540203CE035660DC906051358150097E707009387D3
S31540203CF067F017570700130767979306F02617E6CE
S31540203D000700130626F78D451305B007EFA0711D52
S31540203D1005455DBF894701456386F40008688145AE
S31540203D20EFE0D620EFF0DFB5FD57FE178907E30C0D
S31540203D30F5F879FD086497E50700938525EFEFC0F0
S31540203D40F65719ED2C080808EF104541AA87054576
S31540203D50A5FFE2654265EFF09F9C3335A000ADB7E5
S31540203D600338840041468145428542E4EFE0B6115E
S31540203D7039D917C70D000337E74D630EE500226892
S31540203D8097E70700938707EB17470700130707EDC9
S31540203D909306701AADB797C50D0083B5254BEFF046
S31540203DA0BFDF65BF5971CAE85AF81B09F6FF138B66
S31540203DB08600A2F00548368497170C0083B78724DF
S31540203DC00547DA864A86CEE456FC86F4A6ECD2E04F
S31540203DD0AA8AAE89EFF070706313090697170C0014
S31540203DE083B7C75A806389452285EF60513D2A8A29
S31540203DF0635DA0080146C14517E50700130585EE1A
S31540203E00EFD0905DAA840146C14517E5070013050A
S31540203E10E5EEEFD0705C2A8891C005E917E50700EA
S31540203E20130545EFEF50617AA6700674E66446693D
S31540203E30A669066AE27A427B054565618280086406
S31540203E408145EFE0B60E2A8479BF03B7810663E643
S31540203E50E40083B7010763F7970017E507001305CA
S31540203E6065EFC9B7A948BB0815033C103EE0268735
S31540203E70A2878946228681455285EF60114E4DF5AF
S31540203E802276A6852285EFD0BFC0814610102C0809
S31540203E902285EFD00FBA49F962666300C402827662
S31540203EA0A28517E507001305E5EDB296EFE06675A6
S31540203EB002766265A285EFD0BFBDE2650276171411
S31540203EC00C000334241413050414B387C5000216CA
S31540203ED001926CF44CFC7CE0EFB0966E0277E26681
S31540203EE05A86CA854E85EFF0504C1DFDEFF0105D89
S31540203EF08967938757A02311F40EA2870674A6706C
S31540203F00E664066ADA864A86427B4669CE855685C7
S31540203F10A669E27A05481307007165616FF0F05B88
S31540203F2079714AE82D699305E9671305F96722F007
S31540203F3006F426EC2EE4EF503161054405C9AD6701
S31540203F403400178607001306E6959385E767AA840B
S31540203F50EF90C6782A8415C117E507001305055743
S31540203F60EFE0266A05442685EF507142A2702285ED
S31540203F700274E2644269456182802699230F09666C
S31540203F802685EF508164C5B75D7186E4A2E04AF884
S31540203F904EF452F056EC5AE85EE426FC62E0EF908E
S31540203FA071152A8917E507001305C554EF50E161BD
S31540203FB00334090097E907009389C955171A0C005D
S31540203FC0033ACA1AE14A171B0C00033BAB2297EB74
S31540203FD00700938B2B55631F2401A6600664E27469
S31540203FE04279A279027AE26A426BA26B026C01455F
S31540203FF061618280032604FA130C04FA930584FA3D
S31540204000937716009306900499E39306E0029377FC
S3154020401026001307F00499E31307E0024E85EFE0EC
S31540204020465E8144B38744019C6363988701B38786
S3154020403064018C635E85EFE0C65CA104E39454FF83
S315402040402945EF500150006079B77971B687A106AE
S3154020405022F006F426EC4AE81B04F6FF36E41DC49B
S31540204060AA8488672E89094697950A00938585AD47
S31540204070EF90513B01CD228602741C6DA266A27040
S31540204080CA8526854269E26445618287A2700274A8
S31540204090E26442697D55456182801171CEED930976
S315402040A08100CAF1CE852A896D45D2E9D6E5DAE185
S315402040B05EFD62F986FDA2F9A6F566F56AF16EED1A
S315402040C0130A8102EF20D21497CA0800938A8AC61F
S315402040D0130B010197DB0700938BCB16178C080037
S315402040E0130CCCA1226505E1EE704E74AE740E79A8
S315402040F0EE694E6AAE6A0E6BEA7B4A7CAA7C0A7DE2
S31540204100EA6D11618280EF10C23DAA8422651306B2
S315402041104006D285EFA0724DA267D68683A5C708F2
S31540204120906711E1D28617C508001305A5C2EFE0B6
S31540204130464D630F09022265DA85EFA0124C2A8488
S3154020414005CD17C508001305E5C1EFE0864B93075B
S31540204150A0FD6309F400A28517C50800130505C212
S31540204160EFE0264A1755080013054525EFE0664936
S315402041704E85EF20120EBDB78C4017C5080013059B
S31540204180E5C0979C0A00938CECA2EFE086474265F7
S3154020419097A5080093850544854DEFB006384A8794
S315402041A0114DE266BB978D00F58F89CFDE8509E7F5
S315402041B097C50800938585B903B60C006285EFE064
S315402041C0464401470524A10CE31DA4FD17750700AD
S315402041D01305C5D2EFE0E642E267918B81CBCC4016
S315402041E017C50800130505BCEFE0A641E267A18B81
S315402041F0C1D38C6417C50800130545BCEFE0664063
S3154020420085BF4111054506E4EFF03FE9A26033350D
S31540204210A000410182804111014506E4EFF0FFE70D
S31540204220A2603335A00041018280014582808547C6
S3154020423063D1C706797122F026EC4AE84EE406F4AB
S3154020424088663284AE89194697950A009385859863
S315402042503689EF90311DAA841B06E4FF9306090197
S315402042600DC11C4563CFC7001C6DCE858297027455
S31540204270A2704269A269AA852685E26445616FA03B
S315402042806128A2700274E2644269A2697D55456143
S3154020429082807D558280411106E4EF30C213A260B0
S315402042A0014541018280411106E4EF205271A2600E
S315402042B0014541018280411106E4EF20527EA260F1
S315402042C0014541018280411106E4EF20B262A2609D
S315402042D0014541018280411106E4EF20D25DA26072
S315402042E0014541018280797106F422F026EC4AE8A4
S315402042F04EE4854763D8C704886697E507009385CB
S31540204300E528B2843689EFC0667B29E189476392E6
S31540204310F404A2700274E2644269A26901454561CF
S31540204320828013050002EF50C12193173400CA97AB
S3154020433088630504EF5061299B070400E3C397FE79
S31540204340E38909FC2945EF50C11FE1B7054485495A
S31540204350E9BF09448149D1BF011141462C0006ECF1
S31540204360EFE00643A26783C7070091C37D55E2600D
S3154020437005618280011122E84AE006EC26E42A897A
S315402043802E84631EC700FD571CC1930700059CE180
S315402043900145E2604264A2640269056182809B070E
S315402043A01700B684639AC700FD571CC18862EFF098
S315402043B0BFFA08E00545F1BF09277D55E31BC7FC39
S315402043C08862EFF07FF92320A9008864EFF0DFF8B8
S315402043D008E009457DBF0145828097C70D0023A788
S315402043E0A7E882807571CEF4AA89014522E1A6FC10
S315402043F0CAF8D2F0DAE8DEE4E2E066FC6AF806E5DE
S31540204400D6EC6EF4AE8C32843A89BB84D500EFF07C
S31540204410DFFC3C08056A014CC14B3EE417CB0D003E
S31540204420130BCBE4130A8A38172D0800130D0DA25F
S3154020443063E29C02AA600A64E6744679A679067A03
S31540204440E66A466BA66BE27C427DA27D6285066C5F
S315402044504961828093F7FC003B8CFB40BB869441AC
S315402044601B060C0063F3C600368CA26603250B00A0
S315402044709BD58C00B3E5B900054693F5F50F931A05
S315402044800C0293DA0A02EF408232A29ABB0D9C01BB
S3154020449005C103260B00973507009385A57D6A85C0
S315402044A0EFE0261663060902054C5684EE8C49B782
S315402044B062659B060C002286E68563070900EF307D
S315402044C0D2742A8C75F1D5B7EF40A2062A8C11C139
S315402044D0054C5285EFC0161DC9BF05476FF09FF0AA
S315402044E0797126EC17130C000333C398AE848545A7
S315402044F006F422F032E42A8436E00293826622666B
S31540204500A68501472285EFF0FFEDAA8481452285C5
S3154020451017130C00033303960293A2700274268568
S31540204520E264456182801D71FD573ED23EF486ECA1
S31540204530A2E8A6E4CAE04EFC52F8854763CCC70001
S315402045407D54E66022854664A6640669E279427A0D
S315402045502561828003B98600B284975507009385EA
S31540204560651A11464A853684EFC0465751E51B8663
S31540204570E4FF01490D47930604012C104810EFF043
S315402045807FDFFD57E30EF5FA09250E052A940860CC
S31540204590EFF09FDCAA840864EFF01FDC2AEC086861
S315402045A0EFF09FDBA2752AE812552EE4EFF0FFE2EA
S315402045B0A265C26762671B8405001B8A07009B09A8
S315402045C00700A686631709041756070013068613A5
S315402045D017E5070013050500EFE0A602D2862686DA
S315402045E0CE852285EFF07FEF2A8417E50700130555
S315402045F06502EF40917DB1B71546975507009385E3
S3154020460065154A85EFC0864D05FD1B86E4FF0549A5
S3154020461095B7175607001306E61317E50700130547
S3154020462065FBEFD0167ED2862686CE852285EFF094
S315402046303FEB5DBF854763CCC7007D5582807D5566
S31540204640A2700274E2644269A269456182807971EE
S3154020465022F026EC4AE84EE406F42A89AE893284D2
S31540204660B684EF80E54D01CD06059355150017D547
S31540204670070013052558EFD0D6780545D1B788646D
S31540204680254697950A009385E5A6EF90A15945D9E9
S315402046901B06F4FF02741C6DA27093868400CE859F
S315402046A0E264A2694A854269456182870547635922
S315402046B0C704797122F026EC4AE806F4B687AA8424
S315402046C088672E891B04F6FFA106054697950A00A2
S315402046D09385C5C136E4EF90E15401CD228602741C
S315402046E01C6DA266A270CA8526854269E264456130
S315402046F08287A2700274E26442697D554561828058
S315402047007D55828005476359C704797122F026EC8E
S315402047104AE806F4B687AA8488672E891B04F6FFE2
S31540204720A106154697950A009385C5BF36E4EF90B6
S31540204730614F01CD228602741C6DA266A270CA8585
S3154020474026854269E26445618287A2700274E264EA
S3154020475042697D55456182807D5582801D71A2E8E2
S31540204760A6E4CAE04EFC52F856F486EC328993848D
S3154020477086008549014417EA0700130AAA0E97EADC
S315402047800700938AAA0E63C12905EF00F5372285D3
S31540204790340810082C00EF8055182A84EF00F53392
S315402047A025CC93151400858117E507001305850D43
S315402047B0EFD036650545E6604664A6640669E2792B
S315402047C0427AA27A256182808860D285EFC0062F00
S315402047D011E5136424008529A10475B78860D68520
S315402047E0EFC0C62D01E513644400F5B7886097E510
S315402047F0070093852508EFC0662C01E51364140055
S31540204800D9BF886097E5070093854507EFC0062BFB
S3154020481079F113640402C1B7A26517E507001305B1
S315402048206509EFD0165EC26517E507001305050A30
S31540204830EFD0365DE26517E507001305250BEFD06F
S31540204840565C01458DBF397126F42C080A85FD54E6
S3154020485006FC22F8858002E402E802ECEF001510FF
S31540204860B375950017E507001305C521EFD0765996
S31540204870EF00952902652C001008EF20E57F2A8459
S31540204880EF00B525B375940017E5070013050522FB
S31540204890EFD0365709C4426519C1EF707557EF00FE
S315402048A0F56B6265EF50A12EE2704274A274014509
S315402048B021618280797122F026EC4AE84EE406F4A2
S315402048C02A8997940A00938464CD0144F14941464C
S315402048D0CA852685EFC086420DE1E1473304F402BE
S315402048E097970A00938707CBA2978863A270027492
S315402048F0E2644269A269456182800524E104E318A5
S3154020490034FD0145E5B7397122F826F44EEC52E8DC
S3154020491056E406FC4AF0014497040C0083B48442D2
S31540204920E14917AA0800130AEACA97EA0700938AB8
S315402049306A14BC74636CF400E2704274A274027907
S31540204940E269426AA26A01452161828033093403C1
S31540204950A8784A95EFF01FF62A8611E15286AC7860
S3154020496056850504CA95EFD0D649E1B75971A6ECCC
S3154020497024000147814601468145268586F4A2F0DA
S31540204980CAE8CEE4D2E056FC5AF85EF462F066EC11
S3154020499002E002E4EF70F54EFD57FE1795076312CD
S315402049A0F502A2650A860945938585022EE4EF70B5
S315402049B0953F09ED82650147814601462685EF7080
S315402049C0554C2A8415C10265EF7095440545A6705D
S315402049D00674E6644669A669066AE27A427BA27B49
S315402049E0027CE26C6561828017D708001307074274
S315402049F03A86B546AD4517E507001305A500EFD025
S31540204A00564017C708001307E732C1463A86C145C4
S31540204A1017E5070013050502EFD0B63E82649309D9
S31540204A208002394A97EA0700938ACAFC179B0A00F4
S31540204A30130BCBAE97EB0700938B4B02179C0A00C8
S31540204A40130CCCADA267B3D737036367F400026576
S31540204A50EF70153C0145A5BF9C40D6856368FA009A
S31540204A60139707029357D701DA978C639C6C94640B
S31540204A704147B207B69741465E85EFD0963883BC0C
S31540204A80040217990A001309699B014783370900D5
S31540204A90B3F7FC0089CF1305C00719E313050002BD
S31540204AA0EF40312A03358900EF403132054741092D
S31540204AB0E31E89FD2945EF40D128938484020504CD
S31540204AC051B74111014506E4EF706500A2600145EA
S31540204AD041018280597186F4A6ECA2F0CAE8CEE460
S31540204AE0D2E056FC5AF85EF462F0EF00F5010A87F0
S31540204AF01408014681450145EF10A568AA84EF00B8
S31540204B00C57D0545A5E4C267ADC317D60800130683
S31540204B10E62FA94517E50700130545E9EFD0762E80
S31540204B2017C6080013060621C14517E507001305D9
S31540204B3065E9EFD0162D17E907001309A9EA93096D
S31540204B408101130A8100970A0C0083BAAA1F17BB5A
S31540204B500800130BAB1F97EB0700938B2BE9C2671B
S31540204B60026563E1F402EF70B52A0145A67006742A
S31540204B70E6644669A669066AE27A427BA27B027CA3
S31540204B80656182801394340022950C614A85EFD06A
S31540204B905627EF006577826703B70A064E86A297A7
S31540204BA0033707138863D28502972A84EF00E5727C
S31540204BB019E0E2678DE72945EF40B118850445B7EE
S31540204BC01DC05A85EFD0F623A267131C3400E29706
S31540204BD08863EFF03FCE09CDEF40311F0504E267F1
S31540204BE0E360F4FEC9BF13050002EF409115E9BF0B
S31540204BF0A2675E85E2978C63EFD0B620C5B71D715C
S31540204C0086ECA2E8A6E4CAE04EFC52F856F45AF0E6
S31540204C10EF00856F38001408014697050C0083B5D0
S31540204C20E5300945EF10E5552A84EF00056B05452B
S31540204C3031ECC267B9CB17D608001306261DA94505
S31540204C4017E50700130505CEEFD0B61B17C608009B
S31540204C501306460EC14517E507001305A5CFEFD02D
S31540204C60561A93098101170A0C00033AAAFD97EABE
S31540204C700700938A2AD217EB0700130BABD0C267E3
S31540204C802265636FF400EF70B5180145E66046640F
S31540204C90A6640669E279427AA27A027B25618280FD
S31540204CA0131934004A9508614E86D285EF10A51611
S31540204CB005E9E2679C6F8873EF40F57FAA840DC1B2
S31540204CC0A267AA860146CA978C635A85EFD0761387
S31540204CD00145EF70F5132685EF709513050445B70A
S31540204CE0A26701465685CA978C638144EFD07611D8
S31540204CF0C5B71D7186ECA2E8A6E4CAE04EFC52F880
S31540204D0056F4EF0065603800140801468145014598
S31540204D10EF1025472A84EF00455C054531E8C267F8
S31540204D20B9C717D608001306660EA94517E507002A
S31540204D30130545BDEFD0F60C17C60800130686FFAF
S31540204D40C14517E507001305E5C7EFD0960B930934
S31540204D508101170A0C00033AEA1C97EA0700938A56
S31540204D60EABBC2672265636EF400EF70750A01459F
S31540204D70E6604664A6640669E279427AA27A2561AB
S31540204D808280131934004A9508614E86D285EF10E9
S31540204D90850815E1E267886F19CDEF40D571AA8461
S31540204DA019C9A2672A865685CA978C63EFD076059D
S31540204DB02685EF70F50505046DB785477D55630556
S31540204DC0F60A97070C0083B7670E98639C6719719C
S31540204DD0A2F8A6F4CAF0CEECD2E8D6E4DAE05EFC3D
S31540204DE086FCB28436843AE43EE805490A8AC16A9A
S31540204DF09309810117EB0700130BCBA4930B81007A
S31540204E0063449900014599A00864D285EFD01612D3
S31540204E1082679B06050083C7070085EB63D7560349
S31540204E205A86C9454E85EF7095718147014781461F
S31540204E300146DE854E85EF80752205C5CE8517E570
S31540204E4007001305A5A0EFD0C67B0545E67046743E
S31540204E50A6740679E669466AA66A066BE27B09610C
S31540204E6082800529210469BF8280317122F906FD9D
S31540204E7026F54AF14EED52E956E55AE1DEFCE2F8D6
S31540204E80E6F4EAF0EEEC854732846317F61802E83A
S31540204E90EF0085471C080147BE86014697050C0052
S31540204EA083B5C50017E50700130545983EE4EF8016
S31540204EB0C51BAA84EF006542FD57FE17138757008E
S31540204EC0638CE402B9076399F40017E507001305DC
S31540204ED0E58AEFD006730144EA7022854A74AA74A3
S31540204EE00A79EA694A6AAA6A0A6BE67B467CA67C04
S31540204EF0067DE66D296182804265EF40F164AA898C
S31540204F0001E917E507001305E588EFD0866FE9B775
S31540204F10EF00853FA2664E87014697050C0083B574
S31540204F20E5F817E5070013056590EF8005142A84F8
S31540204F30EF00A53A55E0C26ACE8B054B93DA1A00AC
S31540204F40812A130A810197EC0700938CAC8F170CAA
S31540204F500C00033CACF5130D010397ED0700938D30
S31540204F60ED889B07FBFF63DA570783D60B006686DF
S31540204F70C9455285EF70B55C02E8EF00E538A26678
S31540204F8001470146E2855285EF80250E2A84EF00AF
S31540204F90C534630E940052869B050B0017E5070027
S31540204FA01305C580EFD0E665050B890B5DBF4265CD
S31540204FB0EF4091592A890DC1EF000535A2664A87EF
S31540204FC00146E2855285EF80450A2A84EF00E53086
S31540204FD011C84A85EF40B13B05444E85EF40313BF1
S31540204FE00124DDBD2266CA856A85EF7085052A843F
S31540204FF009C9D28517D507001305457DEFD06660D0
S31540205000E1BFE27652869B050B006E85EFD0665F48
S315402050104A85EF40D13749BF1B0AF6FF93191A003C
S315402050204E85B684EF4051522A890544E30605EA67
S3154020503013848400930A81018144416B9B87040039
S3154020504063CE470397070C0083B747E698639C6770
S31540205050CE863AF83EFC4A8785471D460C1817D51A
S3154020506007001305A57CEF80657F014405CD17D544
S3154020507007001305257AEFD0C65825A00860D685A7
S31540205080A28BEFD0A66A62679B07050003470700FD
S3154020509011CF83B50B0017D5070013052576EFD022
S315402050A0465605444A85EF40912E3DB52104E3D22C
S315402050B067FF93971400CA972390A7008504BDBF26
S315402050C097070C0083B787DE98639C67697122F245
S315402050D0BEF485473ED13C013EE0BC083EE49C08F8
S315402050E026EE4AEA4EE6DAF9DEF5E2F1E6EDEAE9BF
S315402050F006F652E2D6FDEEE502FC82E082E4BAF004
S3154020510002FD02F59B04F6FF13848600014981497E
S315402051103EE8130B8102930B0107130C0103930CFA
S315402051200104130D8103634E9004066A63160A1C1C
S3154020513017D5070013050554EFD0A64C7D54266598
S31540205140EF40F1245285EF70A54C4E85EF70454CCB
S315402051506275EF70E54B0665EF70854B2A75EF401B
S315402051601123B27022851274F2645269B269126AAE
S31540205170EE7A4E7BAE7B0E7CEE6C4E6DAE6D5561FF
S315402051808280086097D5070093854549EFB016136E
S3154020519055E1914763C597007D54014A4DB72A7A18
S315402051A0E31C0AFE0864DA85EFD04658A2779B06B0
S315402051B0050083C70700639C0718C16763D9F618A3
S315402051C017D6070013060668C9455E85EF70353742
S315402051D00868EFB09616AA852AEC0868EFE095672E
S315402051E005050605EF4051362AF863040516626622
S315402051F00C682AF56285EFE0957710740C70086C80
S315402052006687EA86EF40E51119C910700C6C17D5F0
S31540205210070013052541EFD0C63E05440DB7066568
S315402052201109ED34EF30D5232A9913048402FD3435
S315402052302104D5BD086097D5070093852541EFB059
S31540205240F60751E98947E3D997F4E39709F40265CC
S315402052506146972507009385E564833D8400033A9C
S315402052600401833A840182E882ECEFC07F8B226777
S31540205270C2665686D2856E85EF40A50A1DC55686DE
S31540205280D28517D507001305E539EFD08637466511
S31540205290EF7005386665EF70A53717D507001305FB
S315402052A0653BEFD00636014A8DBFE6650265EF3095
S315402052B0F52D2A8A4665EF70A5356665EF7045352A
S315402052C0E30D0AFC5285EF30B5191109F534610416
S315402052D02A99D289A9BF086097D5070093850539B1
S315402052E0EFB0C67DE31A05EAEA77E39707EA1C643E
S315402052F0FD3421043EFD25BF5285CE85EF307529EC
S315402053002A8A01E917D507001305C537EFD0662F3E
S3154020531029B72AF9AC0008112312210BEF60D55E7C
S31540205320AA860544E30D05E02667841881471D4675
S315402053308C102685EF8085520144E30205E0A68540
S3154020534017D5070013058536EFD0A62BF9B57D5422
S3154020535009BD054439B50947FD57631AE6067971F3
S3154020536022F006F488662C003684EFD0263CA267CD
S315402053702313A10083C7070091CF0C6417D50700DC
S315402053801305C547EFD0E6278547A27002743E85B0
S315402053904561828097070C0083B747B198639C6725
S315402053A089463AE83EEC1307610081471D460C08C2
S315402053B017D507001305053BEF80454A814771D530
S315402053C017D5070013058538EFD0A62375BF3E8530
S315402053D08280717126ED06F522F14AE94EE552E1C9
S315402053E0D6FCDAF8DEF4E2F0E6ECEAE88547FD544E
S315402053F063C4C70613050008EF4011152A8421CD42
S31540205400FE142310050093090008130A0102930A8B
S315402054108100138BE4001389540097DB0700938B9C
S31540205420EB31114C4EE4EFF0346E5286A285568510
S31540205430EF70154CAA84EFF0546A6381641F63971A
S315402054402405A2692285CE85EF40D16BAA8C05E53D
S315402054502285EF40C1738544AA700A744A69AA69B5
S315402054600A6AE67A467BA67B067CE66C466D2685EE
S31540205470EA644D618280EFF034695286E68556852E
S31540205480EF701547AA846684EFF03465F1F0214623
S31540205490DE852285EFB0960651F513078400254612
S315402054A09545835707009B8607FDC216C1926378B0
S315402054B0D6009B87F7FBC217C193E3E5F5F6052592
S315402054C00907E31085FF83570401A9FF02E8930CDF
S315402054D00101EFF074630147E686014697050C000B
S315402054E083B5C59C2285EF705538AA84EFF0F45ECB
S315402054F0FD57FE179507E397F4F24265EF40D10436
S31540205500AA8401E917D507001305C528EFD0660FF1
